:1040000090412211F375D0001155744D23116F406A
:104010003C7400116F403611DC001155744D23447F
:1040200001116F402811A1F5F011DCE5F075F00ADF
:1040300084AFF075F00A84AEF024303106EE2430FF
:104040003106EF2430310690417211F32211DC90D9
:10405000416211F32275D018788175D0004396041F
:1040600090FC0C7401F000007400F05396FB2243A6
:10407000960490FC0C75D018790833C813F00044EE
:1040800001F00000000054FEF0C8D9EE75D00074B5
:1040900080F0007481F00000E0337480F05396FBF0
:1040A0002243960490FC0C75D01879087481F000B6
:1040B000000000E033C833C87480F000000000D96D
:1040C000EB88F0E5F075D0007480F0007481F000AA
:1040D00000E0337480F0E5F05396FB2243960490A1
:1040E000FC0C7400F000007401F000007481F053C7
:1040F00096FB22E493A36004310680F722740A3110
:1041000006740D3106223099FDC299F59922C0E05E
:10411000C43115D0E0540F2430B43A0040E82407ED
:1041200080E4544337342054656D70657261747552
:1041300072652053656E736F722028534334303696
:1041400029207265616420766961205343373034D9
:104150002049324320427573204D61737465720AA1
:104160000D004E414B2072656365697665642E0AC9
:0B4170000D002044656720430A0D008D
:00000001FF
