:0A000000021006023003817E817CAD
:07000B0002300B8155813822
:070013000230138132814C21
:07001B000207D681C881989D
:07002300023023818C81866D
:10002B0002302B811C810F81E181EAA185A1159101
:10003B00EA758107757F009155742A917E91C8FFEF
:10004B00917E917CBF4448910F911C91559132C088
:10005B0083C0827F10EF54037002917C917CE091FE
:10006B0038A3DFF1917C917CD082D0837F107B20F1
:10007B007C7FE0B1855002742E917EA3DFF4C3ED3B
:10008B009582EE958350C4013C743F917E013CBF39
:10009B004927918C40F3F8742C917E918C40EAFCAB
:1000AB009155E891387D08917C917CF1279138E846
:1000BB00C39C50D308DDF280E7BF4527910F9155C4
:1000CB009132917CE09138742D917E918C4004F0AB
:1000DB00A380EB60FB1470B51582E582B4FFDF15CE
:1000EB008380DBBF4125918C409FF89155E8913877
:1000FB00917CF1279138742D917E918C4005F140C4
:10010B000880E860FB1470851880E0BF4C16915591
:10011B00E4F9FAB11550FCEA9138E99138900841AD
:10012B00914C013ABF477C71F090F780E0FAA3E065
:10013B00F9F1A2915590F7A87800E0FCA3E0FBA39E
:10014B004C6012D1F77F1231A67F0731A67F5D314C
:10015B00A6D1F78003A3A3A308B804DE90F7897890
:10016B0001E0F6A308B820F990F782E0F58190F74B
:10017B0080E0F5F0A3E0C0E0C0F090F783E0C0E0D2
:10018B00A3E0F5F0A3E0F5D0A3E0C0E0A3E0C0E06E
:10019B00A3E0F500D082D083D0E022E493D1F3EF3B
:1001AB00F0A322BF536290F780E0A3FAE0F9B19479
:1001BB0091EAC28EE589540F4510F589758DFF754F
:1001CB008BFEC28F90F7897801E0F6A308B820F96F
:1001DB0090F782E0F58190F780E0F5F0A3E0C0E0C6
:1001EB00C0F090F783E0C0E0A3E0F5F0A3E0F5D01A
:1001FB00A3E0C0E0A3E0C0E0A3E0F500D082D08391
:10020B00D0E043A888D28E22BF522F90F785E0FE14
:10021B009009317800914CC083C0827583F774804C
:10022B002808F582E0D082D0839138E493B40A0594
:10023B00EE541828F830E7DD013CBF435391C8FF5B
:10024B00917E917C90F780BF50028021A3A3BF5376
:10025B00028037A3BF41028031A3BF4202802BA390
:10026B00E05418FEBF57028021A3BF440D91864076
:10027B001DC5F0F0A3E5F0F0013CEF7B307C38B10D
:10028B0085400B94304E2488F582918C50E9019473
:10029B00BF4619910F911C917C918C40F1FFEFF0AF
:1002AB00A3C3ED9582EE958350F4013CBF55159198
:1002BB000FAA83A982911C9155B194C3ED99EE9A23
:1002CB0050F5013CBF426791C8B4202590F7A87F39
:1002DB00007442917EEF2430917E743D917EE0A3B9
:1002EB009138E0A39138A3A3A3917C0FBF04E20143
:1002FB003C7B307C34B1854095917EC39430FE912C
:10030B007C91864089C0E0C0F0AAF0F9F1A2C92423
:10031B0002C9CA3400CAF1A2EE232354FC2E24A82E
:10032B00F5827583F7D0E0F0A3D0E0F0013CBF512C
:10033B0021714678E5716B9138013C918CF97CF712
:10034B007BBCD1B3E4D1F3917C90F7BC914C743D61
:10035B00817EBF4F1B7146918CFA78F5716B013C16
:10036B0090F7BCE8F0A3E9F0A37422F0EA02F7BC23
:10037B00BF583391C8FF917E917CBF520A910FE019
:10038B0091E1B41BFA013CBF570E910F917C918CFC
:10039B00F091E1B41BFA013CBF431D910FE4939123
:1003AB00E1B41BF9013CBF571112040F12047C126C
:1003BB00048C4004F002003C0194BF3FFB900E3DC7
:1003CB0091557F19E493A3600FB47C11917CDFFCF2
:1003DB00742D917E917C914C9370E5013C917E1F25
:1003EB0080E20203B19186400B90F780C5F0F0A339
:1003FB00E5F0F02270C2900848914C90F780910B79
:10040B00E0A38138918C40B0F583918C40AAF582A2
:10041B0022742C917E9186FDAEF0505E709A74FF23
:10042B00FDFE9138ED8006E5839138E582C0E0C48E
:10043B00913FD0E0540F2430B43A0040362407806B
:10044B0032E493A36034917E80F791E1B41B0201F7
:10045B003CB4200AE57F20E710437F8080ECB40D8D
:10046B0003537F7FE57F20E7E1740A917E740D8053
:10047B000274203099FDC299F59922918C40FBF5BD
:10048B00F0919840F5C4FF919840EF4F2291C87BB3
:10049B00307C3AB1854005917E9430227B417C477C
:1004AB00B1854005917E943722B42003E4D322B466
:1004BB0008047401D322B40DD47402D3223098FDF6
:1004CB00C298E599C0E0249F500994195005D0E0DB
:1004DB00941F22D0E022E4309804C298E599227F41
:1004EB000091E170FA3099F7DFF72291FEC4FD918C
:1004FB00FE4D2291C87B307C3AB185500A7B417C02
:10050B0047B1854018940794302291C8B4533D915C
:10051B00C8C3943060F414600B9408609E90084B31
:10052B00914C013A91F6FE24FDFF29F9EA3400FAC9
:10053B0091F6F5832EFE91F6F5822EFE91F6F0A341
:10054B002EFEDFF891F62E0470D3C322B43ABB9182
:10055B00F6FEFF60C629F9EA3400FA91F6F5832E10
:10056B00FE91F6F5822EFE91F62EFE91F6F0A32E5D
:10057B00FEDFF891F62E70A5C322C0E0C39B4006A8
:10058B00D0E0C0E09CB3D0E0227CF77BBCC002C0C3
:10059B0001B1C9D082D08391327F05917CE493A3C2
:1005AB0091381FE9B582F4EAB583F0917C917C9187
:1005BB007CDFF890F7BCE0A360CE917E80F8C0831F
:1005CB00C082C005C007F10090097CFDE4935DF586
:1005DB00F0A3E493A3B5F00E7F06E493A3B4200D30
:1005EB00D1F3DFFC80F4E493A370FB80DFB4720DD6
:1005FB007452D1F3ED54072430D1F380DDB4691577
:10060B00745BD1F37452D1F3ED54012430D1F374F4
:10061B005DD1F380C5B46D0A7423D1F3F100D1DE43
:10062B0080B8B4780AF100D1DEF100D1DE80ABB432
:10063B006A10F100F11E29C5F03AD1DEE5F0D1DEEA
:10064B008098B46117F100C0E0EA54F8F5F0ED03BF
:10065B0003030303540745F0D0F080DEB46406F1C6
:10066B0000D1B3A1E5B4621AF100C0E054F820E761
:10067B0007030303541F2420D1B3742ED1F3D0E00E
:10068B00C100B4650975F0007401F10380D3B46641
:10069B000974FF75F0FFF10380C7D1F31F70C4D04D
:1006AB0007D005D082D08322F5F0C083C082900D95
:1006BB00D2E493A3601730E7F8B5F0F5E493A360A9
:1006CB000720E704D1F380F4D082D08322D082D0EC
:1006DB0083E5F0C0E003030303D1E8D0E0540F241B
:1006EB0030B43A0040022407D1F7F0A3CCC583CC39
:1006FB00CBC582CB22E4F5F0C083C08229F582EA18
:10070B0035F0F583E493D082D083C92401C9CA3470
:10071B0000CA2275F00030E70215F022B820004025
:10072B0002E622C083C0827583F7748828F582E0C5
:10073B00D082D08322B820004002F622C083C08230
:10074B00C0E07583F7748828F582D0E0F0D082D0B2
:10075B008322F1EF90F7A87800E0A3FCE0A3FB4C19
:10076B00600A7F03E0A3D1F3DFFA8003A3A3A308FE
:10077B00B804E6900857914C90F780E0A3F5F0E0B1
:10078B00C39403C5F0940090F780F09138A3E5F083
:10079B00C5F0F09138013C90F7A87800E0A3FCE09D
:1007AB00A3FBA3A3A34C60177F03C3E99BF5F0EA5C
:1007BB009C45F0600FEB2401FBEC3400FCDFEB08F5
:1007CB00B804D922900861914C013CC2ABF1EFE522
:1007DB0089540F4420F589758DFF758BFFC28FF1FE
:1007EB00EE013C32C082C08390F783F0A3E5F0F0BA
:1007FB00A3E5D0F0A353D0E7D0E0F0A3D0E0F09086
:10080B00F7BCD0E0F0A3D0E0F090F788E8F0A37845
:10081B0001E6F0A308B820F990F780D0E0F0A3D060
:10082B00E0F0A3E581F075810790F7BCE0F5F0A34C
:10083B00E0C0E0C0F022204279746573002D3E00C9
:10084B003F4C6F6164206572726F7200427265611A
:10085B006B20617420000A0D427265616B706F69C9
:10086B006E7420636F6E666C69637421000A0D4DA4
:10087B004F4E35312076312E3120286329204461AB
:10088B0076652044756E6669656C640A0D4F7269F6
:10089B0067696E616C20636F646520617420687496
:1008AB007470733A2F2F64756E6669656C642E7461
:1008BB0068656D696E64666163746F72792E636FC0
:1008CB006D0A0D53656520434F50592E54585420D3
:1008DB006174207468652061626F76652061646461
:1008EB007265737320666F72206D6F726520696E0F
:1008FB00666F726D6174696F6E2E0A0D0A0D5573FA
:10090B0065722050726F6772616D207370616365E1
:10091B0020737461727473206174206164647265F6
:10092B0073732030780050433D00002053503D003E
:10093B0020413D0020423D00205053573D002044B4
:10094B005054523D00000A0D0052303D00205231F0
:10095B003D002052323D002052333D002052343DA9
:10096B00002052353D002052363D002052373D00CD
:10097B00FF1F114143414C4C206100F82841444476
:10098B0020412C7200FF2541444420412C6400FE81
:10099B002641444420412C6900FF2441444420411A
:1009AB002C6D00F8384144444320412C7200FF3534
:1009BB004144444320412C6400FE364144444320CF
:1009CB00412C6900FF344144444320412C6D001FEE
:1009DB0001414A4D50206100F858414E4C20412CAA
:1009EB007200FF55414E4C20412C6400FE56414E87
:1009FB004C20412C6900FF54414E4C20412C6D0082
:100A0B00FF52414E4C20642C4100FF53414E4C2071
:100A1B00642C6D00FF82414E4C20432C6200FFB0D2
:100A2B00414E4C20432C2F6200FFB5434A4E4520CC
:100A3B00412C642C6A00FFB4434A4E4520412C6D77
:100A4B002C6A00F8B8434A4E4520722C6D2C6A0074
:100A5B00FEB6434A4E4520692C6D2C6A00FFE443D9
:100A6B004C52204100FFC3434C52204300FFC24372
:100A7B004C52206200FFF443504C204100FFB34323
:100A8B00504C204300FFB243504C206200FFD44433
:100A9B0041204100FF14444543204100F8184445D0
:100AAB0043207200FF15444543206400FE16444565
:100ABB0043206900FF8444495620414200F8D84442
:100ACB004A4E5A20722C6A00FFD5444A4E5A206473
:100ADB002C6A00FF04494E43204100F808494E435D
:100AEB00207200FF05494E43206400FE06494E4329
:100AFB00206900FFA3494E43204450545200FF206D
:100B0B004A4220622C6A00FF104A424320622C6A40
:100B1B0000FF404A43206A00FF734A4D50205B415F
:100B2B002B445054525D00FF304A4E4220622C6AD7
:100B3B0000FF504A4E43206A00FF704A4E5A206A0B
:100B4B0000FF604A5A206A00FF124C43414C4C2074
:100B5B007800FF024C4A4D50207800F8E84D4F5674
:100B6B0020412C7200FFE54D4F5620412C6400FEB6
:100B7B00E64D4F5620412C6900FF744D4F562041D6
:100B8B002C6D00F8F84D4F5620722C4100F8A84DF3
:100B9B004F5620722C6400F8784D4F5620722C6DF6
:100BAB0000FFF54D4F5620642C4100F8884D4F56F1
:100BBB0020642C7200FF854D4F5620652C6600FE7D
:100BCB00864D4F5620642C6900FF754D4F5620649F
:100BDB002C6D00FEF64D4F5620692C4100FEA64DA4
:100BEB004F5620692C6400FE764D4F5620692C6DB4
:100BFB0000FFA24D4F5620432C6200FF924D4F56E3
:100C0B0020622C4300FF904D4F5620445054522CE1
:100C1B00237800FF934D4F564320412C5B412B44CF
:100C2B005054525D00FF834D4F564320412C5B4186
:100C3B002B50435D00FEE24D4F565820412C69006E
:100C4B00FFE04D4F565820412C5B445054525D00F1
:100C5B00FEF24D4F565820692C4100FFF04D4F5678
:100C6B0058205B445054525D2C4100FFA44D554C11
:100C7B0020414200FF004E4F5000F8484F524C208D
:100C8B00412C7200FF454F524C20412C6400FE4614
:100C9B004F524C20412C6900FF444F524C20412CA9
:100CAB006D00FF424F524C20642C4100FF434F52CA
:100CBB004C20642C6D00FF724F524C20432C620071
:100CCB00FFA04F524C20432C2F6200FFD0504F50AF
:100CDB00206400FFC050555348206400FF2252454A
:100CEB005400FF325245544900FF23524C2041001F
:100CFB00FF33524C43204100FF035252204100FF6F
:100D0B0013525243204100FFD3534554422043001A
:100D1B00FFD253455442206200FF80534A4D50206E
:100D2B006A00F8985355424220412C7200FF9553AC
:100D3B0055424220412C6400FE96535542422041BD
:100D4B002C6900FF945355424220412C6D00FFC487
:100D5B0053574150204100F8C858434820412C724A
:100D6B0000FFC558434820412C6400FEC658434839
:100D7B0020412C6900FED65843484420412C690081
:100D8B00F86858524C20412C7200FF6558524C2089
:100D9B00412C6400FE6658524C20412C6900FF64C4
:100DAB0058524C20412C6D00FF6258524C20642C41
:100DBB004100FF6358524C20642C6D0000003F49EA
:100DCB004C4C4547414C00E041F042D050535781C9
:100DDB0053508244504C8344504880503090503193
:100DEB00A05032B05033B84950A8494589544D4FA3
:100DFB0044C85432434F4E8854434F4E8C54483062
:100E0B008A544C308D5448318B544C31CD5448322C
:100E1B00CC544C32CB524341503248CA52434150CE
:100E2B00324C9853434F4E99534255468750434F3C
:100E3B004E004D4F4E353120436F6D6D616E6473B7
:100E4B003A0A0041203C61613E7C416C7465722022
:100E5B00696E7465726E616C0042205B6E2061611D
:100E6B0061615D7C427265616B706F696E7473005A
:100E7B0043203C723E203C646174613E7C4368615C
:100E8B006E67652072656769737465720044203CF8
:100E9B00616161613E2C5B616161615D7C44756D7B
:100EAB00702065787465726E616C0045203C6161E1
:100EBB0061613E7C456469742065787465726E610E
:100ECB006C0046203C616161613E2C5B616161613C
:100EDB005D203C64643E7C46696C6C20657874656F
:100EEB00726E616C0047205B616161615D7C476F75
:100EFB00202865786563757465290049203C61611C
:100F0B003E2C3C61613E7C64756D7020496E74654E
:100F1B00726E616C004C7C646F776E4C6F61640019
:100F2B004F203C61613E203C646174613E7C4F7597
:100F3B007470757420746F205346520051203C61BD
:100F4B00613E7C51756572792053465200527C6428
:100F5B00756D702052656769737465727300537C8D
:100F6B0053696E676C652D537465700055203C6139
:100F7B006161613E2C5B616161615D7C556E2D61D0
:100F8B007373656D626C650057203C616161613EF6
:100F9B00203C646174613E7C53696E676C6520779D
:100FAB007269746500582043203C616161613E7C2D
:100FBB004C6F6F705265616420436F6465005820FD
:100FCB0052203C616161613E7C4C6F6F7052656178
:100FDB006420584441544100582057203C616161C2
:100FEB00613E203C646174613E7C4C6F6F70577244
:100FFB006974652058444154410000758920758DF2
:10100B00FF758BFF75884975985290F7807430F097
:10101B00A37400F0A37407F0A37F4DE4F0A3DFFCEF
:0F102B0090087812044C90300012043202003A00
:00000001FF
