:0A000000021055023003818E818C3E
:07000B0002300B8165814802
:070013000230138142815C01
:07001B000207E681D881A86D
:07002300023023819C81964D
:10002B0002302B812C811F81F181FAA195A12591A1
:10003B00FA758107757F009165742A918E91D8FFAF
:10004B00918E918CBF4448911F912C91659142C028
:10005B0083C0827F10EF54037002918C918CE091DE
:10006B0048A3DFF1918C918CD082D0837F107B20C1
:10007B007C7FE0B1955002742E918EA3DFF4C3ED1B
:10008B009582EE958350C4013C743F918E013CBF29
:10009B004927919C40F3F8742C918E919C40EAFC7B
:1000AB009165E891487D08918C918CF1379148E8E6
:1000BB00C39C50D308DDF280E7BF4527911F9165A4
:1000CB009142918CE09148742D918E919C4004F05B
:1000DB00A380EB60FB1470B51582E582B4FFDF15CE
:1000EB008380DBBF4125919C409FF89165E8914847
:1000FB00918CF1379148742D918E919C4005F15064
:10010B000880E860FB1470851880E0BF4C16916581
:10011B00E4F9FAB12550FCEA9148E991489008516D
:10012B00915C013ABF477C910090F780E0FAA3E025
:10013B00F9F1B2916590F7A87800E0FCA3E0FBA37E
:10014B004C6012F1077F1231A67F0731A67F6D310C
:10015B00A6F1078003A3A3A308B804DE90F7897860
:10016B0001E0F6A308B820F990F782E0F58190F74B
:10017B0080E0F5F0A3E0C0E0C0F090F783E0C0E0D2
:10018B00A3E0F5F0A3E0F5D0A3E0C0E0A3E0C0E06E
:10019B00A3E0F500D082D083D0E022E493F103EF0B
:1001AB00F0A322BF536290F780E0A3FAE0F9B1A469
:1001BB0091FAC28EE589540F4510F589758DFF753F
:1001CB008BFEC28F90F7897801E0F6A308B820F96F
:1001DB0090F782E0F58190F780E0F5F0A3E0C0E0C6
:1001EB00C0F090F783E0C0E0A3E0F5F0A3E0F5D01A
:1001FB00A3E0C0E0A3E0C0E0A3E0F500D082D08391
:10020B00D0E043A888D28E22BF522F90F785E0FE14
:10021B0090095A7800915CC083C0827583F7748013
:10022B002808F582E0D082D0839148E493B40A0584
:10023B00EE541828F830E7DD013CBF435391D8FF4B
:10024B00918E918C90F780BF50028021A3A3BF5356
:10025B00028037A3BF41028031A3BF4202802BA390
:10026B00E05418FEBF57028021A3BF440D91964066
:10027B001DC5F0F0A3E5F0F0013CEF7B307C38B10D
:10028B0095400B94304E2488F582919C50E9019453
:10029B00BF4619911F912C918C919C40F1FFEFF06F
:1002AB00A3C3ED9582EE958350F4013CBF55159198
:1002BB001FAA83A982912C9165B1A4C3ED99EE9AE3
:1002CB0050F5013CBF426791D8B4202590F7A87F29
:1002DB00007442918EEF2430918E743D918EE0A389
:1002EB009148E0A39148A3A3A3918C0FBF04E20113
:1002FB003C7B307C34B1954095918EC39430FE910C
:10030B008C91964089C0E0C0F0AAF0F9F1B2C924F3
:10031B0002C9CA3400CAF1B2EE232354FC2E24A81E
:10032B00F5827583F7D0E0F0A3D0E0F0013CBF512C
:10033B0021714678E5716B9148013C919CF97CF7F2
:10034B007BBCD1C3E4F103918C90F7BC915C743D01
:10035B00818EBF4F1B7146919CFA78F5716B013CF6
:10036B0090F7BCE8F0A3E9F0A37422F0EA02F7BC23
:10037B00BF583391D8FF918E918CBF520A911FE0D9
:10038B0091F1B41BFA013CBF570E911F918C919CBC
:10039B00F091F1B41BFA013CBF431D911FE4939103
:1003AB00F1B41BF9013CBF571112041F12048C123C
:1003BB00049C4004F002003C0194BF3F28900E6661
:1003CB0091657F19E493A3600FB47C11918CDFFCD2
:1003DB00742D918E918C915C9370E5013C918E1FE5
:1003EB0080E20203B1BF5AD090F8007401F0A3F081
:1003FB0075A7C980FE9196400B90F780C5F0F0A3CE
:10040B00E5F0F02270B2900858915C90F780911B48
:10041B00E0A38148919C40A0F583919C409AF58282
:10042B0022742C918E9196FDAEF0505E708A74FF03
:10043B00FDFE9148ED8006E5839148E582C0E0C45E
:10044B00914FD0E0540F2430B43A0040362407804B
:10045B0032E493A36034918E80F791F1B41B0201C7
:10046B003CB4200AE57F20E710437F8080ECB40D7D
:10047B0003537F7FE57F20E7E1740A918E740D8033
:10048B000274203099FDC299F59922919C40FBF59D
:10049B00F091A840F5C4FF91A840EF4F2291D87B73
:1004AB00307C3AB1954005918E9430227B417C474C
:1004BB00B1954005918E943722B42003E4D322B436
:1004CB0008047401D322B40DD47402D3223098FDE6
:1004DB00C298E599C0E0249F500994195005D0E0CB
:1004EB00941F22D0E022E4309804C298E599227F31
:1004FB000091F170FA3099F7DFF722B10EC4FDB11C
:10050B000E4D2291D87B307C3AB195500A7B417CC1
:10051B0047B1954018940794302291D8B4533D912C
:10052B00D8C3943060F414600B9408609E90085B01
:10053B00915C013AB106FE24FDFF29F9EA3400FA79
:10054B00B106F5832EFEB106F5822EFEB106F0A3A1
:10055B002EFEDFF8B1062E0470D3C322B43ABBB122
:10056B0006FEFF60C629F9EA3400FAB106F5832EC0
:10057B00FEB106F5822EFEB1062EFEB106F0A32EBD
:10058B00FEDFF8B1062E70A5C322C0E0C39B400668
:10059B00D0E0C0E09CB3D0E0227CF77BBCC002C0B3
:1005AB0001B1D9D082D08391427F05918CE493A382
:1005BB0091481FE9B582F4EAB583F0918C918C9147
:1005CB008CDFF890F7BCE0A360CE918E80F8C083EF
:1005DB00C082C005C007F1109009A5FDE4935DF53D
:1005EB00F0A3E493A3B5F00E7F06E493A3B4200D20
:1005FB00F103DFFC80F4E493A370FB80DFB4720D96
:10060B007452F103ED54072430F10380DDB4691506
:10061B00745BF1037452F103ED54012430F1037454
:10062B005DF10380C5B46D0A7423F103F110D1EEB3
:10063B0080B8B4780AF110D1EEF110D1EE80ABB4E2
:10064B006A10F110F12E29C5F03AD1EEE5F0D1EE9A
:10065B008098B46117F110C0E0EA54F8F5F0ED039F
:10066B0003030303540745F0D0F080DEB46406F1B6
:10067B0010D1C3A1F5B4621AF110C0E054F820E711
:10068B0007030303541F2420D1C3742EF103D0E0BE
:10069B00C110B4650975F0007401F11380D3B46611
:1006AB000974FF75F0FFF11380C7F1031F70C4D0FD
:1006BB0007D005D082D08322F5F0C083C082900D85
:1006CB00FBE493A3601730E7F8B5F0F5E493A36070
:1006DB000720E704F10380F4D082D08322D082D0AC
:1006EB0083E5F0C0E003030303D1F8D0E0540F24FB
:1006FB0030B43A0040022407F107F0A3CCC583CCF9
:10070B00CBC582CB22E4F5F0C083C08229F582EA07
:10071B0035F0F583E493D082D083C92401C9CA3460
:10072B0000CA2275F00030E70215F022B820004015
:10073B0002E622C083C0827583F7748828F582E0B5
:10074B00D082D08322B820004002F622C083C08220
:10075B00C0E07583F7748828F582D0E0F0D082D0A2
:10076B008322F1FF90F7A87800E0A3FCE0A3FB4CF9
:10077B00600A7F03E0A3F103DFFA8003A3A3A308BE
:10078B00B804E6900867915C90F780E0A3F5F0E081
:10079B00C39403C5F0940090F780F09148A3E5F063
:1007AB00C5F0F09148013C90F7A87800E0A3FCE07D
:1007BB00A3FBA3A3A34C60177F03C3E99BF5F0EA4C
:1007CB009C45F0600FEB2401FBEC3400FCDFEB08E5
:1007DB00B804D922900871915C013CC2ABF1FFE5E2
:1007EB0089540F4420F589758DFF758BFFC28FF1EE
:1007FB00FE013C32C082C08390F783F0A3E5F0F09A
:10080B00A3E5D0F0A353D0E7D0E0F0A3D0E0F09075
:10081B00F7BCD0E0F0A3D0E0F090F788E8F0A37835
:10082B0001E6F0A308B820F990F780D0E0F0A3D050
:10083B00E0F0A3E581F075810790F7BCE0F5F0A33C
:10084B00E0C0E0C0F022204279746573002D3E00B9
:10085B003F4C6F6164206572726F7200427265610A
:10086B006B20617420000A0D427265616B706F69B9
:10087B006E7420636F6E666C69637421000A0D4D94
:10088B004F4E35312076312E31202863292044619B
:10089B0076652044756E6669656C640A0D4F7269E6
:1008AB0067696E616C20636F646520617420687486
:1008BB007470733A2F2F64756E6669656C642E7451
:1008CB0068656D696E64666163746F72792E636FB0
:1008DB006D0A0D53656520434F50592E54585420C3
:1008EB006174207468652061626F76652061646451
:1008FB007265737320666F72206D6F726520696EFF
:10090B00666F726D6174696F6E2E0A0D0A0D2D2064
:10091B004E6577205A20636F6D6D616E6420616444
:10092B006465640A0D2D20557365722050726F67D4
:10093B0072616D207370616365207374617274737F
:10094B002061742061646472657373203078005089
:10095B00433D00002053503D0020413D0020423DCF
:10096B0000205053573D0020445054523D00000A84
:10097B000D0052303D002052313D002052323D00DF
:10098B002052333D002052343D002052353D002093
:10099B0052363D002052373D00FF1F114143414C61
:1009AB004C206100F82841444420412C7200FF2563
:1009BB0041444420412C6400FE2641444420412CF8
:1009CB006900FF2441444420412C6D00F838414418
:1009DB00444320412C7200FF354144444320412CB9
:1009EB006400FE364144444320412C6900FF3441EE
:1009FB0044444320412C6D001F01414A4D5020615E
:100A0B0000F858414E4C20412C7200FF55414E4C82
:100A1B0020412C6400FE56414E4C20412C6900FFB6
:100A2B0054414E4C20412C6D00FF52414E4C2064E2
:100A3B002C4100FF53414E4C20642C6D00FF824132
:100A4B004E4C20432C6200FFB0414E4C20432C2FC8
:100A5B006200FFB5434A4E4520412C642C6A00FFCF
:100A6B00B4434A4E4520412C6D2C6A00F8B8434ADA
:100A7B004E4520722C6D2C6A00FEB6434A4E452023
:100A8B00692C6D2C6A00FFE4434C52204100FFC3DC
:100A9B00434C52204300FFC2434C52206200FFF4F0
:100AAB0043504C204100FFB343504C204300FFB256
:100ABB0043504C206200FFD44441204100FF1444BA
:100ACB004543204100F818444543207200FF15446C
:100ADB004543206400FE16444543206900FF8444CF
:100AEB00495620414200F8D8444A4E5A20722C6A8B
:100AFB0000FFD5444A4E5A20642C6A00FF04494E2D
:100B0B0043204100F808494E43207200FF05494E2F
:100B1B0043206400FE06494E43206900FFA3494E63
:100B2B0043204450545200FF204A4220622C6A005A
:100B3B00FF104A424320622C6A00FF404A43206A5E
:100B4B0000FF734A4D50205B412B445054525D00C3
:100B5B00FF304A4E4220622C6A00FF504A4E43201F
:100B6B006A00FF704A4E5A206A00FF604A5A206A98
:100B7B0000FF124C43414C4C207800FF024C4A4D75
:100B8B0050207800F8E84D4F5620412C7200FFE5BD
:100B9B004D4F5620412C6400FEE64D4F5620412C04
:100BAB006900FF744D4F5620412C6D00F8F84D4FE6
:100BBB005620722C4100F8A84D4F5620722C640021
:100BCB00F8784D4F5620722C6D00FFF54D4F562087
:100BDB00642C4100F8884D4F5620642C7200FF8521
:100BEB004D4F5620652C6600FE864D4F5620642CCB
:100BFB006900FF754D4F5620642C6D00FEF64D4F6E
:100C0B005620692C4100FEA64D4F5620692C6400DE
:100C1B00FE764D4F5620692C6D00FFA24D4F56208E
:100C2B00432C6200FF924D4F5620622C4300FF90E5
:100C3B004D4F5620445054522C237800FF934D4F68
:100C4B00564320412C5B412B445054525D00FF8393
:100C5B004D4F564320412C5B412B50435D00FEE230
:100C6B004D4F565820412C6900FFE04D4F565820F0
:100C7B00412C5B445054525D00FEF24D4F565820B0
:100C8B00692C4100FFF04D4F5658205B4450545295
:100C9B005D2C4100FFA44D554C20414200FF004EFE
:100CAB004F5000F8484F524C20412C7200FF454FDB
:100CBB00524C20412C6400FE464F524C20412C6973
:100CCB0000FF444F524C20412C6D00FF424F524CC1
:100CDB0020642C4100FF434F524C20642C6D00FFCD
:100CEB00724F524C20432C6200FFA04F524C2043BA
:100CFB002C2F6200FFD0504F50206400FFC0505586
:100D0B005348206400FF2252455400FF3252455491
:100D1B004900FF23524C204100FF33524C432041EA
:100D2B0000FF035252204100FF1352524320410057
:100D3B00FFD353455442204300FFD2534554422026
:100D4B006200FF80534A4D50206A00F89853554279
:100D5B004220412C7200FF955355424220412C6496
:100D6B0000FE965355424220412C6900FF94535587
:100D7B00424220412C6D00FFC4535741502041008B
:100D8B00F8C858434820412C7200FFC558434820EF
:100D9B00412C6400FEC658434820412C6900FED606
:100DAB005843484420412C6900F86858524C204164
:100DBB002C7200FF6558524C20412C6400FE665883
:100DCB00524C20412C6900FF6458524C20412C6D31
:100DDB0000FF6258524C20642C4100FF6358524C68
:100DEB0020642C6D0000003F494C4C4547414C00A2
:100DFB00E041F042D05053578153508244504C83C2
:100E0B00445048805030905031A05032B05033B8DD
:100E1B004950A8494589544D4F44C85432434F4E0D
:100E2B008854434F4E8C5448308A544C308D544820
:100E3B00318B544C31CD544832CC544C32CB524381
:100E4B0041503248CA52434150324C9853434F4E53
:100E5B0099534255468750434F4E004D4F4E3531B7
:100E6B0020436F6D6D616E64733A0A0041203C61E3
:100E7B00613E7C416C74657220696E7465726E6143
:100E8B006C0042205B6E20616161615D7C4272652A
:100E9B00616B706F696E74730043203C723E203C33
:100EAB00646174613E7C4368616E6765207265673F
:100EBB0069737465720044203C616161613E2C5B17
:100ECB00616161615D7C44756D70206578746572DC
:100EDB006E616C0045203C616161613E7C456469DB
:100EEB00742065787465726E616C0046203C61619C
:100EFB0061613E2C5B616161615D203C64643E7CA1
:100F0B0046696C6C2065787465726E616C00472065
:100F1B005B616161615D7C476F20286578656375F6
:100F2B007465290049203C61613E2C3C61613E7C2B
:100F3B0064756D7020496E7465726E616C004C7CCB
:100F4B00646F776E4C6F6164004F203C61613E2093
:100F5B003C646174613E7C4F757470757420746F62
:100F6B00205346520051203C61613E7C51756572A5
:100F7B00792053465200527C64756D702052656720
:100F8B0069737465727300537C53696E676C652D5E
:100F9B00537465700055203C616161613E2C5B614F
:100FAB006161615D7C556E2D617373656D626C65FE
:100FBB000057203C616161613E203C646174613E7D
:100FCB007C53696E676C6520777269746500582075
:100FDB0043203C616161613E7C4C6F6F7052656177
:100FEB006420436F646500582052203C616161614D
:100FFB003E7C4C6F6F705265616420584441544184
:10100B0000582057203C616161613E203C64617453
:10101B00613E7C4C6F6F7057726974652058444108
:10102B005441005A7C5265626F6F74202D20696E9B
:10103B007465726E616C2050726F67204D656D2008
:10104B0064697361626C65640000758920758DFF3E
:10105B00758BFF75884975985290F7807430F0A3A3
:10106B007400F0A37407F0A37F4DE4F0A3DFFC90B2
:0E107B00088812045C90300012044202003A11
:00000001FF
